:100000000C9450000C945A000C945A000C945A0012
:100010000C945A000C945A000C945A000C945A00F8
:100020000C945A000C945A000C945A000C945A00E8
:100030000C945A000C945A000C945A000C945A00D8
:100040000C945A000C945A000C945A000C945A00C8
:100050000C945A000C945A000C945A000C945A00B8
:100060000C945A000C945A000C945A000C945A00A8
:100070000C945A000C945A000C945A000C945A0098
:100080000C945A000C945A000C945A000C945A0088
:100090000C945A000C945A000C945A000C945A0078
:1000A00011241FBECFEFCDBFDFE3DEBF0E941E01D4
:1000B0000C9482010C940000EF92FF920F931F9317
:1000C000CF93DF93CDB7DEB72A97CDBFDEBF9AE0DF
:1000D000E8E0F3E4DE01119601900D929A95E1F7C4
:1000E00094E6A0E8B4E054E001E010E00C0F1D1F1E
:1000F000080F111D6894EE24E6F8FF24F2F848E09A
:1001000021E030E02C0F3D1F260F311D14965C932B
:100110001497F8018081F7018483E6E4F0E13197D8
:10012000F1F700C014964C931497F9018081F70100
:100130008483E6E4F0E13197F1F700C0915031F7A4
:100140002A96CDBFDEBFDF91CF911F910F91FF9017
:10015000EF900895E0EAF8E08BE0868381E0858304
:1001600083830895880F862B8093A70861110DC0A3
:10017000E0EAF8E0858186FFFDCFE0EAF8E08581DE
:100180008064858382E084830895E0EAF8E08581D5
:100190008823ECF7E0EAF8E0858180688583858133
:1001A0008295817091E089270895E0EAF8E08087E0
:1001B000858185818064858382E0848385818295C1
:1001C000817091E089270895E0EAF8E0958195FF34
:1001D000FDCF882321F087E08093A40803C082E04C
:1001E0008093A4088091A80808950F931F93CF933C
:1001F000DF93C82F60E00E94B20080E00E94D5002B
:1002000000EA18E0D7E0F801D48361E08C2F0E9467
:10021000B20080E00E94E400C82F81E00E94E40068
:10022000F801D4832C2F30E0322F2227A901482B4C
:10023000CA01DF91CF911F910F910895E0EAF4E098
:10024000808180628083E0E0FAE083818160838343
:100250008181806481838081806680838FEC87A325
:100260008CEC85A785E08093E405808181608083A4
:100270008CE0809381048FEF809340040E94AA0059
:10028000CAE0D0E060E088E40E94F5009923D4F34E
:1002900087FF04C0892F9927019602C0892F9927CB
:1002A0009927BE010E945A01962F682F892F0E941C
:1002B0005C00E8CF97FB072E16F4009407D077FD7B
:1002C00009D00E946E0107FC05D03EF490958195FF
:1002D0009F4F0895709561957F4F0895AA1BBB1B92
:1002E00051E107C0AA1FBB1FA617B70710F0A61B36
:1002F000B70B881F991F5A95A9F780959095BC0157
:08030000CD010895F894FFCF30
:0A030800B711AB9B1D9EBE13BF9FF3
:00000001FF
