:100000000C9450000C945A000C945A000C945A0012
:100010000C945A000C945A000C945A000C945A00F8
:100020000C945A000C945A000C945A000C945A00E8
:100030000C945A000C945A000C945A000C945A00D8
:100040000C945A000C945A000C945A000C945A00C8
:100050000C945A000C945A000C945A000C945A00B8
:100060000C945A000C945A000C945A000C945A00A8
:100070000C945A000C945A000C945A000C945A0098
:100080000C945A000C945A000C945A000C945A0088
:100090000C945A000C945A000C945A000C945A0078
:1000A00011241FBECFEFCDBFDFE3DEBF0E946B0088
:1000B0000C94AD000C940000E0E6F4E084818F77AE
:1000C000848384818F7B848384818F7D84838481F6
:1000D0008F7E8483089580EF80936104E0E0F4E0F4
:1000E000828387898860878B86898860868B8589EB
:1000F0008860858B84898860848B8091080488233C
:1001000044F00E945C00E0E6F4E08481806884832F
:10011000F4CF8091080486FD08C00E945C00E0E6F0
:10012000F4E0848180648483E8CF8091080485FDB5
:1001300008C00E945C00E0E6F4E084818062848371
:10014000DCCF8091080484FDD8CF0E945C00E0E6FB
:0E015000F4E0848180618483D0CFF894FFCFE7
:00000001FF
