:100000000C9450000C945A000C945A000C945A0012
:100010000C945A000C945A000C945A000C945A00F8
:100020000C945A000C945A000C945A000C945A00E8
:100030000C945A000C945A000C945A000C945A00D8
:100040000C945A000C945A000C945A000C945A00C8
:100050000C945A000C945A000C945A000C945A00B8
:100060000C945A000C945A000C945A000C945A00A8
:100070000C945A000C945A000C945A000C945A0098
:100080000C945A000C945A000C945A000C945A0088
:100090000C945A000C945A000C945A000C945A0078
:1000A00011241FBECFEFCDBFDFE3DEBF0E945C0097
:1000B0000C94AC000C940000CF93DF93CDB7DEB767
:1000C0002A97CDBFDEBF8AE0ECE5F1E4DE011196B0
:1000D00001900D928A95E1F78CE0809381048FEF77
:1000E000809340048E01055F1F4FA0E8B4E0689440
:1000F000EE24E6F8FF24F2F874E068E0AE014F5F0A
:100100005F4F26C014967C931497FA019081F701F3
:100110009483E6E4F0E13197F1F700C014966C9314
:100120001497F9019081F7019483E6E4F0E13197A7
:10013000F1F700C0815031F72F5F3F4F02171307CF
:1001400011F084E6DFCF4F5F5F4F04171507B1F260
:0C0150009E012F5F3F4FF5CFF894FFCFCA
:0A015C00B711AB9B1D9EBE13BF9FA1
:00000001FF
